:100000000C9463000C948B000C948B000C948B006C
:100010000C948B000C948B000C948B000C948B0034
:100020000C948B000C948B000C948B000C948B0024
:100030000C948B000C948B000C948B000C948B0014
:100040000C943B030C948B000C9408050C945605FF
:100050000C948B000C948B000C948B000C948B00F4
:100060000C948B000C948B000000000024002700EF
:100070002A0000000000250028002B0000000000DE
:1000800023002600290004040404040404040202DA
:100090000202020203030303030301020408102007
:1000A0004080010204081020010204081020000012
:1000B0000007000201000003040600000000000029
:1000C00000008D00C20611241FBECFEFD8E0DEBFB6
:1000D000CDBF11E0A0E0B1E0E4E3FFE002C0059095
:1000E0000D92A037B107D9F712E0A0E7B1E001C047
:1000F0001D92A833B107E1F710E0C6ECD0E004C0D0
:100100002297FE010E949407C23CD107C9F70E94C2
:1001100018070C9498070C940000CF92EF920F935D
:1001200080E791E06CE04BE025E004E053E0E52E51
:1001300032E0C32E0E9402030F91EF90CF900895FA
:100140000F931F9386E192E040E855E260E070E093
:100150000E9491058091470162E00E9421048091F4
:10016000490162E00E94210480914B0162E00E94FB
:10017000210480914D0162E00E94210400E711E01A
:10018000C80160E142E020E00E944C02C80160E04A
:1001900071E00E946D07C80160E041E00E94150215
:1001A000C80169E071E00E946D0764EF71E080E0D2
:1001B00090E00E948303C8010E9444021F910F91A6
:1001C0000895809147010E94B404892B81F486E14F
:1001D00092E061E00E94820680E791E060E040E00A
:1001E0000E94150280E791E06DE071E041C08091CE
:1001F00049010E94B404892B81F486E192E062E017
:100200000E94820680E791E060E040E00E941502D3
:1002100080E791E068E171E02BC080914B010E9482
:10022000B404892B81F486E192E063E00E948206A7
:1002300080E791E060E040E00E94150280E791E0F5
:1002400063E271E015C080914D010E94B404892BD6
:1002500091F486E192E064E00E94820680E791E0FA
:1002600060E040E00E94150280E791E06EE271E0FC
:100270000E946D07089586E192E064E10E94820683
:1002800080E791E068E371E00E946D0780E791E00C
:100290000E94440208950F931F938C01FC018681F4
:1002A00060E00E94600481E090E00E94DC03F801BD
:1002B000868161E00E94600481E090E00E94DC039E
:1002C000F801868160E00E94600484E690E00E946C
:1002D000DC031F910F910895CF92DF92EF92FF926E
:1002E0000F931F93CF93DF93D82EC92E282F392F2A
:1002F000C9018C01C0E0D0E0E62EFF24F80187811F
:1003000061E00E942104B7010C2E02C0759567952B
:100310000A94E2F76170F80187810E9460042196D7
:100320000F5F1F4FC830D10549F78D2D9C2D0E94BE
:100330004B01DF91CF911F910F91FF90EF90DF90D4
:10034000CF900895CF92DF92EF92FF920F931F9379
:10035000CF93DF93D82EC92E282F392FC9018C01B6
:10036000C0E0D0E0E62EFF24F801878161E00E9422
:100370002104B7010C2E02C0759567950A94E2F727
:100380006170F80187810E94600421960F5F1F4F02
:10039000C430D10549F78D2D9C2D0E944B01DF9172
:1003A000CF911F910F91FF90EF90DF90CF90089524
:1003B0001F93CF93DF93EC01162F8C81642F0E9443
:1003C00060048D818F3F19F060E00E9460048F858A
:1003D00084FF05C0CE01612F0E946C010EC0612F09
:1003E00070E084E0759567958A95E1F7CE010E94EB
:1003F000A201CE01612F0E94A201DF91CF911F9136
:10040000089541E00E94D80181E090E0089540E025
:100410000E94D8010895FC016089862F8460808B3A
:100420006C60CF010E9407020895DF93CF93CDB790
:10043000DEB728970FB6F894DEBF0FBECDBF9C0184
:10044000FE013196A7E5B1E088E00D900192815060
:10045000E1F7F9018389481710F0482F4150E42F44
:10046000F0E0EE0FFF1FEC0FFD1F8181680F606849
:10047000C9010E94070228960FB6F894DEBF0FBE8E
:10048000CDBFCF91DF91089561E00E94070280ED1A
:1004900097E00E94DC030895CF93DF93EC01423094
:1004A00018F08F8588608F874B8B1C8A222329F058
:1004B000413019F48F8584608F8780E593EC0E942A
:1004C000DC038C8160E00E9460048E8160E00E9409
:1004D00060048D818F3F19F060E00E9460046F8599
:1004E00064FD1DC0CE0163E00E94A20184E991E198
:1004F0000E94DC03CE0163E00E94A20184E991E145
:100500000E94DC03CE0163E00E94A20186E990E034
:100510000E94DC03CE0162E00E94A20116C060626C
:10052000CE010E94070284E991E10E94DC036F85FD
:100530006062CE010E94070286E990E00E94DC031F
:100540006F856062CE010E9407026F856062CE01F6
:100550000E94070284E0888BCE010E940B02CE012C
:100560000E94440282E0898BCE0166E00E9407026D
:10057000DF91CF9108956F927F928F92AF92CF9239
:10058000EF920F931F93DF93CF93CDB7DEB73C016C
:10059000162F842FF301448325830683E782C086C8
:1005A000A18682869D8593879E8594879F85958762
:1005B0009889968761E00E942104F30185818F3F2D
:1005C00019F061E00E942104F301868161E00E943C
:1005D0002104112319F0F301178603C080E1F30110
:1005E0008787C30160E141E020E00E944C02CF9187
:1005F000DF911F910F91EF90CF90AF908F907F90F0
:100600006F9008958F92AF92CF92EF920F931F93B6
:10061000CF93DF93DC01362F542F722F102FAE2C87
:100620008C2C13961C921E92129783E591E01196E2
:100630009C938E9300D000D0EDB7FEB73196CDB726
:10064000DEB71982118212821382CD0161E0432F3D
:100650002FEF052FE72EC12E0E94BB020F900F90A7
:100660000F900F90DF91CF911F910F91EF90CF904E
:10067000AF908F9008951F920F920FB60F92112492
:100680002F933F938F939F93AF93BF938091890153
:1006900090918A01A0918B01B0918C0130918D01D4
:1006A0000196A11DB11D232F2D5F2D3720F02D5751
:1006B0000196A11DB11D20938D0180938901909316
:1006C0008A01A0938B01B0938C0180918501909158
:1006D0008601A0918701B09188010196A11DB11DED
:1006E0008093850190938601A0938701B093880140
:1006F000BF91AF919F918F913F912F910F900FBE1E
:100700000F901F9018959B01AC017FB7F8948091D2
:10071000850190918601A0918701B091880166B50D
:10072000A89B05C06F3F19F00196A11DB11D7FBFA9
:10073000BA2FA92F982F8827860F911DA11DB11DB3
:1007400062E0880F991FAA1FBB1F6A95D1F7BC01F1
:100750002DC0FFB7F8948091850190918601A091FA
:100760008701B0918801E6B5A89B05C0EF3F19F05D
:100770000196A11DB11DFFBFBA2FA92F982F882761
:100780008E0F911DA11DB11DE2E0880F991FAA1FB8
:10079000BB1FEA95D1F7861B970B885E9340C8F282
:1007A000215030404040504068517C4F2115310568
:1007B0004105510571F60895019739F0880F991F89
:1007C000880F991F02970197F1F70895789484B5DF
:1007D000826084BD84B5816084BD85B5826085BD3D
:1007E00085B5816085BDEEE6F0E080818160808323
:1007F000E1E8F0E010828081826080838081816006
:100800008083E0E8F0E0808181608083E1EBF0E0CC
:10081000808184608083E0EBF0E080818160808370
:10082000EAE7F0E080818460808380818260808359
:100830008081816080838081806880831092C10084
:100840000895CF93DF93482F50E0CA0186569F4FFB
:10085000FC0134914A575F4FFA018491882369F172
:1008600090E0880F991FFC01E859FF4FA591B491C2
:10087000FC01EE58FF4FC591D491662351F42FB778
:10088000F8948C91932F909589238C938881892358
:100890000BC0623061F42FB7F8948C91932F909530
:1008A00089238C938881832B88832FBF06C09FB7B1
:1008B000F8948C91832B8C939FBFDF91CF910895F7
:1008C000482F50E0CA0182559F4FFC012491CA0174
:1008D00086569F4FFC0194914A575F4FFA0134911D
:1008E000332309F440C0222351F1233071F0243026
:1008F00028F42130A1F0223011F514C02630B1F0D7
:100900002730C1F02430D9F404C0809180008F7763
:1009100003C0809180008F7D8093800010C084B5DB
:100920008F7702C084B58F7D84BD09C08091B000EF
:100930008F7703C08091B0008F7D8093B000E32F4C
:10094000F0E0EE0FFF1FEE58FF4FA591B4912FB7C7
:10095000F894662321F48C919095892302C08C91A0
:10096000892B8C932FBF0895682F70E0CB0182559F
:100970009F4FFC012491CB0186569F4FFC0144916F
:100980006A577F4FFB019491992319F420E030E0DE
:100990003CC0222351F1233071F0243028F421305F
:1009A000A1F0223011F514C02630B1F02730C1F08B
:1009B0002430D9F404C0809180008F7703C08091E7
:1009C00080008F7D8093800010C084B58F7702C037
:1009D00084B58F7D84BD09C08091B0008F7703C03E
:1009E0008091B0008F7D8093B000892F90E0880FB8
:1009F000991F84589F4FFC01A591B4918C9120E0E0
:100A000030E0842311F021E030E0C9010895089519
:100A10001F920F920FB60F9211242F933F934F9373
:100A20008F939F93EF93FF938091C00082FD1DC031
:100A30004091C6002091CE013091CF012F5F3F4FF2
:100A40002F7330708091D0019091D1012817390710
:100A500071F0E091CE01F091CF01E257FE4F40835B
:100A60003093CF012093CE0102C08091C600FF9148
:100A7000EF919F918F914F913F912F910F900FBECA
:100A80000F901F901895E0912202F0912302E05CF4
:100A9000FF4F8191919120813181821B930B8F7344
:100AA0009070892B11F00E94070508951F920F92F4
:100AB0000FB60F9211242F933F938F939F93EF9331
:100AC000FF932091120230911302809114029091B1
:100AD00015022817390731F48091C1008F7D80936A
:100AE000C10014C0E0911402F0911502EE52FE4FC5
:100AF0002081809114029091150201968F7390705D
:100B000090931502809314022093C600FF91EF91F9
:100B10009F918F913F912F910F900FBE0F901F903B
:100B20001895AF92BF92DF92EF92FF920F931F93AF
:100B3000CF93DF93EC017A018B01DD24403081EE0D
:100B4000580780E0680780E0780711F0DD24D3942F
:100B500091E0A92EB12CEC89FD89DD2069F0C50159
:100B600008A002C0880F991F0A94E2F7808360E012
:100B700079E08DE390E005C0108260E874E88EE1D2
:100B800090E0A80197010E9470072150304040403A
:100B90005040569547953795279580E12030380786
:100BA00020F0DD2011F0DD24D6CFE889F9893083EB
:100BB000EA89FB89208319A2EE89FF89408121E01F
:100BC00030E0C9010C8C02C0880F991F0A94E2F72B
:100BD000482B4083EE89FF894081C9010D8C02C0FA
:100BE000880F991F0A94E2F7482B4083EE89FF890A
:100BF0004081C9010E8C02C0880F991F0A94E2F748
:100C0000482B4083EE89FF8980810F8C02C0220F20
:100C1000331F0A94E2F7209528232083DF91CF9198
:100C20001F910F91FF90EF90DF90BF90AF900895CC
:100C3000DC011C96ED91FC911D97E05CFF4F21912A
:100C4000319180819181281B390B2F733070C9013C
:100C50000895DC011C96ED91FC911D97E05CFF4F1F
:100C600020813181E054F040DF01AE5BBF4F8D91B8
:100C70009C9111972817390719F42FEF3FEF07C000
:100C80008D919C91E80FF91F8081282F30E0C901D8
:100C90000895DC011C96ED91FC911D97E05CFF4FDF
:100CA00020813181E054F040DF01AE5BBF4F8D9178
:100CB0009C9111972817390719F42FEF3FEF10C0B7
:100CC0008D919C911197E80FF91F20818D919C9136
:100CD000119701968F73907011969C938E9330E0CC
:100CE000C9010895DC0191968C919197882339F080
:100CF0005496ED91FC915597808186FFF9CF91969E
:100D00001C920895CF93DF93EC01EE85FF85E05CA4
:100D1000FF4F20813181E054F0402F5F3F4F2F7310
:100D20003070DF01AE5BBF4F8D919C9111972817FA
:100D30003907D1F3E05CFF4F80819181E054F040AE
:100D4000E80FF91F6083EE85FF85E05CFF4F31837C
:100D50002083EE89FF89208181E090E00F8C02C022
:100D6000880F991F0A94E2F7282B208381E089A33A
:100D7000EC89FD8980818064808381E090E0DF914F
:100D8000CF910895109219021092180288EE93E004
:100D9000A0E0B0E080931A0290931B02A0931C0283
:100DA000B0931D0283E691E09093170280931602A0
:100DB0008EE891E0909323028093220282ED91E0ED
:100DC000909325028093240285EC90E09093270273
:100DD0008093260284EC90E090932902809328026D
:100DE00080EC90E090932B0280932A0281EC90E0BB
:100DF00090932D0280932C0282EC90E090932F022E
:100E000080932E0286EC90E0909331028093300222
:100E100084E08093320283E08093330287E0809302
:100E2000340285E08093350281E080933602089594
:100E3000CF93DF930E94E6030E94A000C3E4D5E0B5
:100E40000E94E1002097E1F30E944305F9CFCF9281
:100E5000DF92EF92FF920F931F93CF93DF937C016A
:100E60006B018A01C0E0D0E00FC0D6016D916D0129
:100E7000D701ED91FC910190F081E02DC70109951A
:100E8000C80FD91F015010400115110571F7CE018F
:100E9000DF91CF911F910F91FF90EF90DF90CF9056
:100EA0000895CF93DF93EC016115710519F420E0EB
:100EB00030E00FC0DB010D900020E9F71197A61B71
:100EC000B70BE881F9810280F381E02DAD0109952E
:100ED0009C01C901DF91CF9108950E9451070895A7
:100EE000A1E21A2EAA1BBB1BFD010DC0AA1FBB1F2E
:100EF000EE1FFF1FA217B307E407F50720F0A21BA0
:100F0000B30BE40BF50B661F771F881F991F1A940C
:100F100069F760957095809590959B01AC01BD0136
:100F2000CF010895EE0FFF1F0590F491E02D099475
:040F3000F894FFCF63
:100F3400574952454C455353004341520020202009
:100F4400464F52574152440020204241434B57419F
:100F54005244005249474854205455524E004C457F
:100F64004654205455524E002020202053544152C0
:100F7400542020202020000A000800090007000057
:100F84000000000102270700004000140054000084
:100F94000000008206270718064906290672060083
:00000001FF
